:020000040800F2
:1000000060070020490D0008190200081B020008C3
:100010001F02000823020008270200080000000059
:100020000000000000000000000000002B0200089B
:100030002D020008000000002F0200083102000815
:10004000630D0008630D0008630D0008630D0008D0
:10005000630D0008630D0008630D0008630D0008C0
:10006000630D0008630D0008630D0008630D0008B0
:10007000630D0008630D0008630D0008630D0008A0
:10008000630D0008630D0008630D0008630D000890
:10009000630D0008630D0008630D0008630D000880
:1000A000630D0008630D0008630D0008630D000870
:1000B000630D0008630D0008630D0008630D000860
:1000C000630D0008630D0008630D0008630D000850
:1000D000630D0008BF0C0008630D0008630D0008E5
:1000E000630D0008630D0008630D0008630D000830
:1000F000630D0008630D0008630D0008630D000820
:10010000630D0008630D0008630D0008630D00080F
:10011000630D0008630D0008630D0008630D0008FF
:10012000630D0008630D0008630D0008630D0008EF
:1001300000F002F800F03AF80AA090E8000C8244BF
:100140008344AAF10107DA4501D100F02FF8AFF29C
:10015000090EBAE80F0013F0010F18BFFB1A43F0A5
:100160000103184798290000B8290000103A24BF5D
:1001700078C878C1FAD8520724BF30C830C144BF0C
:1001800004680C607047000000230024002500264E
:10019000103A28BF78C1FBD8520728BF30C148BFEA
:1001A0000B6070471FB51FBD10B510BD01F0E3FB1C
:1001B0001146FFF7F7FF00F009F801F001FC03B466
:1001C000FFF7F2FF03BC00F01FFD000000F0B2FCDF
:1001D0004FF4A06000F0D8FD00F083F900F098F92A
:1001E00000F0FEF90FE008A20121084600F0EFFB45
:1001F00040F654324921012000F01BFC054A6121E0
:10020000012000F052FAEEE7D7AACBD9B8F8B6A889
:100210003A0000009F250008704700BFFEE700BFBE
:10022000FEE700BFFEE700BFFEE77047704770477C
:10023000704700000CB50020019000906C480068E9
:1002400040F480306A49086000BF6948006800F4E3
:10025000003000900198401C0190009818B9019856
:10026000B0F5A06FF1D16248006800F4003010B121
:100270000120009001E0002000900098012843D167
:100280005C48006840F010005A4908600846006861
:1002900020F0030008600846006840F00200086093
:1002A00053484068524948600846406848600846DC
:1002B000406840F4806048600846406820F47C1044
:1002C00048600846406840F4E81048600846006806
:1002D00040F08070086000BF4548006800F0007082
:1002E0000028F9D04248406820F0030040494860A7
:1002F0000846406840F00200486000BF3C48406843
:1003000000F00C000828F9D10CBD10B5FFF792FFE2
:1003100010BD10B53648006840F00100344908604F
:10032000084640683449084031494860084600683A
:10033000324908402E4908600846006820F48020B1
:1003400008600846406820F4FE0048604FF41F0033
:100350008860FFF7DAFF4FF000602949086010BDA0
:1003600010B5002100200022214B5B6803F00C0136
:1003700021B1042906D0082928D107E0214B224CBD
:10038000236027E01F4B204C236023E0184B5B6861
:1003900003F47010164B5B6803F48032022303EB06
:1003A000904022B9194B4343174C23600DE0104B8A
:1003B0005B6803F4003323B1144B4343124C2360B6
:1003C00003E0104B4343104C236003E00D4B0E4CF5
:1003D000236000BF00BF064B5B68C3F303130C4CE4
:1003E000E15C094B1B68CB40074C236010BD00004B
:1003F00000100240002002400000FFF8FFFFF6FE60
:1004000008ED00E000127A000000002000093D0025
:10041000040000200120F8490860F849C1F884016F
:100420000020F549091F0860F449C1F888017047A8
:100430000020F1490860F149C1F884010120EE492A
:10044000091F0860ED49C1F8880170472DE9F041A6
:1004500005462C46002716E026460020E64908609F
:1004600006F08006802E03D10120091F086003E0FA
:100470000020E149091F08606006040E0120DE49E2
:100480000860781CC7B2082FE6DB0020DA49086054
:10049000032000F068FB0120D849C1F88801BDE8BD
:1004A000F08110B50446FFF7B5FF7820FFF7CEFFC7
:1004B0000020FFF7CBFFE0B2FFF7C8FFFFF7B8FF60
:1004C00010BD10B50446FFF7A5FF7820FFF7BEFF6B
:1004D0004020FFF7BBFFE0B2FFF7B8FFFFF7A8FF30
:1004E00010BDC748806940F01000C5498861C54803
:1004F000006820F47F60C34908600846006840F443
:100500004C7008600846C06840F00600C86070473C
:1005100010B50020B849091D08604FF4FA7000F0CA
:1005200046FB0120B549C1F88C01AE20FFF7B9FFA9
:10053000D520FFF7B6FF8020FFF7B3FFA820FFF715
:10054000B0FF3F20FFF7ADFFD320FFF7AAFF002049
:10055000FFF7A7FF4020FFF7A4FF8D20FFF7A1FFC3
:100560001420FFF79EFF2020FFF79BFF0220FFF7DC
:1005700098FFC820FFF795FFA120FFF792FFDA2030
:10058000FFF78FFF1220FFF78CFF8120FFF789FF15
:10059000CF20FFF786FFD920FFF783FFF120FFF779
:1005A00080FFDB20FFF77DFF4020FFF77AFFAF20C1
:1005B000FFF777FF10BD70B505460C46601EC4B24C
:1005C000681EC5B205F1B000FFF76BFF102101EB0B
:1005D0001410FFF766FF04F00F00FFF762FF70BD15
:1005E00070B500240FE0611CC8B20121FFF7E3FFE2
:1005F000002504E00020FFF764FF681CC5B2802DD1
:10060000F8DB601CC4B2082CEDDB70BD2DE9F041B5
:1006100007460D46002410E0611CC8B20121FFF717
:10062000CAFF002606E03846FFF74BFF2846FFF7D3
:1006300048FF761C402EF6DB641C082CECDBBDE882
:10064000F08170B50446002510E0691CC8B2012194
:10065000FFF7B1FF002605E02078FFF732FF641CAA
:10066000701C86B2802EF7DB681C85B2082DECDB8F
:1006700070BD2DE9F041064688461446002510E07D
:100680007119C8B24146FFF796FF002705E02078B0
:10069000FFF717FF641C781C87B2802FF7DB681CFC
:1006A00085B2022DECDBBDE8F0812DE9F041064674
:1006B00088461446002510E07119C8B24146FFF77C
:1006C0007AFF002705E02078FFF7FBFE641C781C0A
:1006D000C7B2202FF7DB681CC5B2042DECDBBDE8E8
:1006E000F0812DE9F041064688461446002510E0C9
:1006F0007119C8B24146FFF75EFF002705E0207878
:10070000FFF7DFFE641C781CC7B2102FF7DB681CF4
:10071000C5B2022DECDBBDE8F0812DE9F0410646C3
:1007200088461446002510E07119C8B24146FFF70B
:1007300042FF002705E02088FFF7C3FEA41C781CB9
:10074000C7B2102FF7DB681CC5B2012DECDBBDE88A
:10075000F0812DE9F041064688461446002510E058
:100760007119C8B24146FFF726FF002705E020783F
:10077000FFF7A7FE641C781CC7B2802FF7DB681C4C
:10078000C5B2082DECDBBDE8F0812DE9F04106464D
:1007900088461446002510E07119C8B24146FFF79B
:1007A0000AFF002705E02078FFF78BFE641C781C09
:1007B000C7B2082FF7DB681CC5B2022DECDBBDE821
:1007C000F0812DE9F04780460E46154600247B2E29
:1007D00004DD012608F102001FFA80F839E0285DE7
:1007E000202834DB285D7E2831DC285D20381FFA84
:1007F00080FA002723E00000880122420000224204
:100800000010024000100140F1B208EB0702D0B224
:10081000FFF7D1FE4FF000090CE0C24901EB0A11CD
:10082000082202FB0792885CFFF74BFE09F10100EA
:100830001FFA80F9B9F1080FEFDB781C87B2022F9D
:10084000E2DB601C84B206F1080086B201E0601CA5
:1008500084B2285D0028C2DCBDE8F0872DE9F05F96
:1008600080460E4691461D46002441E0285D202822
:100870003CDB285D7E2839DC285D20381FFA80FAB1
:10088000F1B208F0FF00FFF796FE002716E0B9F17D
:10089000010F08D10AEB8A00A3490844C05DC04398
:1008A0001FFA80FB05E00AEB8A009F49084410F814
:1008B00007B05846FFF705FE781C87B2052FE6DB28
:1008C000B9F1010F03D1FF20FFF7FBFD02E000208B
:1008D000FFF7F7FD601C84B2B01D86B27B2E07DDEA
:1008E000012608F101001FFA80F801E0601C84B2C3
:1008F000285D0028BADCBDE8F09F2DE9F0470746E7
:100900008946904600265CE000244FF0010A12E080
:100910008648005D18F8061088420AD18349601C99
:10092000095C701C18F80000814202D14FEA041AD9
:1009300005E0A01CC4B27D48005D7E28E8DC00BF55
:10094000B9F1710F03DD4FF00009B81CC7B2BAF15D
:10095000010F1CD0002515E07919C8B24946FFF7F0
:100960002AFE00240AE0724911F80A00FFF7A9FDE7
:100970000AF101001FFA80FA601CC4B2102CF2DBED
:10098000681CC5B2022DE7DBB01CC6B215E000251D
:100990000FE07919C8B24946FFF70DFE002404E0C4
:1009A0000020FFF78EFD601CC4B2102CF8DB681C21
:1009B000C5B2022DEDDB701CC6B209F1100000F0CB
:1009C000FF0918F8060000289ED1BDE8F087F8B5A9
:1009D00007460E461546002427E0285D7E2814DDD4
:1009E000285D8DF80000601C285C8DF80100002057
:1009F0008DF802006A4631463846FFF77EFF06F161
:100A00001000C6B2A01CC4B20FE0285D8DF8000033
:100A100000208DF801006A4631463846FFF7D1FEC6
:100A200006F10800C6B2601CC4B2285D0028D4D10B
:100A3000F8BD2DE9F8438146884616460024002774
:100A40000025002000900A2096FBF0F100FB1160C9
:100A5000C0B28DF803000A2096FBF0F00A2190FB4B
:100A6000F1F201FB1200C0B28DF80200642096FB87
:100A7000F0F090FBF1F201FB1200C0B28DF8010022
:100A80004FF47A7096FBF0F090FBF1F201FB12004C
:100A9000C0B28DF8000000BF3FE01DF80400103028
:100AA000C0B20DF80400002716E0082000FB048007
:100AB000C1B24846FFF77FFD002509E01DF804108C
:100AC000184A02EB0111485DFFF7FBFC681CC5B238
:100AD000082DF3DB781CC7B2022FE6DB002718E0F5
:100AE000082202FB0482D1B209F10102D0B2FFF761
:100AF00062FD082509E01DF804100A4A02EB011105
:100B0000485DFFF7DEFC681CC5B2102DF3DB781CD6
:100B1000C7B2022FE4DB601CC4B2042CBDDBBDE80D
:100B2000F8830000D4190008C41F0008302800080A
:100B30005B28000810B56FF0040000F074F92E482F
:100B400000682E49B0FBF1F02D4908700846007886
:100B500000EB4001C1EBC0104FF6FF7101EAC0008D
:100B60002849088010BD0146254A12784A434FF0B3
:100B7000E0235A6100229A611A46126942F001028A
:100B80001A6100BF4FF0E022106900F001021AB1B3
:100B900000F48032002AF5D04FF0E022126922F0F2
:100BA00001024FF0E0231A6100229A61704701466A
:100BB000144A12884A434FF0E0235A6100229A6196
:100BC0001A46126942F001021A6100BF4FF0E0229A
:100BD000106900F001021AB100F48032002AF5D049
:100BE0004FF0E022126922F001024FF0E0231A6177
:100BF00000229A61704700000000002000127A0075
:100C00001400002016000020014600BF704700BFFE
:100C1000494A128802F04002002AF9D0C2B2464B7B
:100C20001B1D1A80704710B586B00446012144F29E
:100C3000040000F033FC4FF40070ADF81400032002
:100C40008DF8160018208DF8170005A93B4800F014
:100C500069F94FF48060ADF8140004208DF8170096
:100C600005A9364800F05EF925208DF80000032024
:100C70008DF801008DF8020001208DF80300684610
:100C800000F087F801940020ADF80800ADF80A00E4
:100C9000ADF80C00ADF810000C20ADF80E0001A965
:100CA000254800F0A2FC012240F22551224800F024
:100CB00034FD0121204800F024FD06B010BD10B520
:100CC00040F225511C4800F00DFE10B31A4800F008
:100CD00089FDC4B21A48008800F40040C8B9184819
:100CE000008800F4804060B10A2C03D00020144931
:100CF000088020E01248008840F400401049088035
:100D000019E00D2C06D10E48008840F480400C49B3
:100D1000088010E00A480088C0F30D0009490C540F
:100D200007480088401C0649088008460088C728F4
:100D300001DD0020088010BD00380140000801409E
:100D40001C00002034000020094880470948004763
:100D5000FEE7FEE7FEE7FEE7FEE7FEE7FEE7FEE76B
:100D6000FEE7FEE704480549054A064B70470000C8
:100D70001303000831010008600100206007002013
:100D8000600300206003002031490143314A1160B3
:100D9000704770B5002100230F22C47804B32D4C96
:100DA000246804F4E064C4F5E064210AC1F104039A
:100DB000CA40447804FA03F18478144021430901BD
:100DC000254C0678A155047804F01F050124AC4099
:100DD00005786D11AD0005F1E025C5F8004109E089
:100DE000047804F01F050124AC401C4D06787611F0
:100DF00045F8264070BD1A4A0A400243154B1B1F96
:100E00001A60704739B1134A121D12680243114B20
:100E10001B1D1A6006E00F4A121D126882430D4B1B
:100E20001B1D1A607047042808D14FF0E0210969A2
:100E300041F004014FF0E022116107E04FF0E021A2
:100E4000096921F004014FF0E022116170470000B0
:100E50000000FA050CED00E000E400E080E100E0B5
:100E600080FFFF1F10B50446CC48844208D1012101
:100E7000042000F02DFB0021042000F029FB46E0B7
:100E8000C748844208D10121082000F021FB00213D
:100E9000082000F01DFB3AE0C248844208D101213D
:100EA000102000F015FB0021102000F011FB2EE0B7
:100EB000BD48844208D10121202000F009FB002117
:100EC000202000F005FB22E0B848844208D101212F
:100ED000402000F0FDFA0021402000F0F9FA16E071
:100EE000B348844208D10121802000F0F1FA0021AA
:100EF000802000F0EDFA0AE0AE48844207D10121DB
:100F0000801500F0E5FA0021A01500F0E1FA10BD0F
:100F100010B50121084600F0DBFA0021012000F0A5
:100F2000D7FA10BD2DE9F041024600250026002029
:100F300000230024002791F803C00CF00F0591F85E
:100F400003C00CF0100CBCF1000F03D091F802C0EC
:100F50004CEA050591F800C0BCF1000F31D01468CF
:100F600000202BE04FF0010C0CFA00F3B1F800C0A8
:100F70000CEA03069E4220D183004FF00F0C0CFABE
:100F800003F7BC4305FA03FC4CEA040491F803C0E0
:100F9000BCF1280F06D14FF0010C0CFA00FCC2F88E
:100FA00014C00AE091F803C0BCF1480F05D14FF01E
:100FB000010C0CFA00FCC2F810C0401C0828D1D368
:100FC0001460B1F800C0BCF1FF0F34DD546800209C
:100FD0002EE000F1080C4FF0010808FA0CF3B1F80C
:100FE00000C00CEA03069E4221D183004FF00F0C93
:100FF0000CFA03F7BC4305FA03FC4CEA040491F82D
:1010000003C0BCF1280F05D100F1080C08FA0CF858
:10101000C2F8148091F803C0BCF1480F07D100F169
:10102000080C4FF0010808FA0CF8C2F81080401CB8
:101030000828CED35460BDE8F0814FF6FF710180DF
:10104000022181700421C17070470246002093681C
:101050000B400BB1012000E000207047014688687A
:1010600080B2704702460020D3680B400BB10120CC
:1010700000E0002070470146C86880B270470161F7
:101080007047416170470AB1016100E041617047FA
:10109000C16070474FF480320A438261816182618E
:1010A00082698269704702460020434B18684FF6F8
:1010B0008073184040EA021008433F4B18607047A5
:1010C0003E49C8617047F0B50A460023002400215C
:1010D000002500F00046B6F1004F02D1364EF1690E
:1010E00001E0354E7168C0F3034583B200F4401649
:1010F000B6F5401F08D121F070612F4E766826F0BA
:1011000070662D4F7E6012E000F48016B6F5801FE9
:1011100006D1032606FA05F4A14341F0706106E00A
:10112000460D360103FA06F6B14341F0706122B173
:10113000460D360103FA06F6314300F00046B6F1DB
:10114000004F02D11C4EF16101E01B4E7160F0BDF9
:1011500030B500228B071C0F0F2303FA04F2164B45
:1011600008338C1053F824309343134C08348D10FB
:1011700044F8253023468C1053F824308C07240F74
:1011800000FA04F423430C4C08348D1044F8253045
:1011900030BD0A49DC31086070470000000801409A
:1011A000000C0140001001400014014000180140F3
:1011B000001C0140002001400000014000002042CE
:1011C000DF48006840F00100DD49086008464068DB
:1011D000DC490840DA49486008460068DA490840B6
:1011E000D74908600846006820F480200860084657
:1011F000406820F4FE0048604FF41F00886070478C
:10120000CF49096821F48031CD4A1160114609683F
:1012100021F480211160B0F5803F03D0B0F5802F1C
:101220000ED106E0C649096841F48031C44A116014
:1012300007E0C349096841F4A021C14A116000E0F8
:1012400000BF00BF704710B50146002200230020F8
:101250004A11012A02D1BA4C236806E0022A02D1BF
:10126000B74C236A01E0B64C636A01F01F02012407
:1012700094401C400CB1012000E0002010BD38B5A6
:10128000002000900024002500BF3120FFF7DBFF85
:1012900005460098401C00900098B0F5A06F01D062
:1012A000002DF2D03120FFF7CEFF08B1012400E07D
:1012B0000024204638BD01460020A14A106820F0D5
:1012C000F80040EAC10010607047A049086070470C
:1012D000024600209A4B586820F47C1042EA010331
:1012E0001843974B58607047984908667047014605
:1012F0000020934A506820F0030008435060704774
:101300008F48406800F00C007047014600208C4A6E
:10131000506820F0F00008435060704701460020FC
:10132000874A506820F4E0600843506070470146E7
:101330000020834A506820F4605040EAC1005060A9
:10134000704729B17E4A527A02437D4B5A7204E0BB
:101350007B4A527A82437A4B5A7270477B49D83122
:101360000860704701460020754A506820F44040EC
:101370000843506070470021714A20321170704A52
:1013800082F82010012802D004280AD104E00121AB
:101390006B4A2032117005E00521694A2032117034
:1013A00000E000BF00BF70476949086070476449AA
:1013B000096A0143624A116270476549443908600D
:1013C000704730B500210022002400235C4D6D6879
:1013D00005F00C0121B1042905D0082923D105E02D
:1013E0005C4D056022E05B4D05601FE0544D6D686B
:1013F00005F47012524D6D6805F48034022505EB3A
:1014000092421CB9544D554305600BE04C4D6D683C
:1014100005F400351DB1504D5543056002E04D4DBA
:101420005543056002E04B4D056000BF00BF444DD1
:101430006D6805F0F0010909484D6B5C0568DD40F9
:1014400045603F4D6D6805F4E061090A434D6B5CF2
:101450004568DD4085603A4D6D6805F46051C90A04
:101460003E4D6B5C4568DD40C560354D6D6805F4EB
:101470004041890B3A4D6B5CC568B5FBF3F50561DE
:1014800030BD29B12E4A526902432D4B5A6104E006
:101490002B4A526982432A4B5A61704729B1284A24
:1014A00092690243264B9A6104E0254A926982437D
:1014B000234B9A61704729B1214AD2690243204BDC
:1014C000DA6104E01E4AD26982431D4BDA6170473B
:1014D00029B11B4AD2680243194BDA6004E0184A6A
:1014E000D2688243164BDA60704729B1144A1269F8
:1014F0000243134B1A6104E0114A12698243104BF4
:101500001A61704712494039086070470F49C86432
:1015100070470B49C87170470948406A40F08070B5
:1015200007494862704701460020054A92680A4010
:101530000AB1012000E0002070470149887270471D
:10154000001002400000FFF8FFFFF6FE00004242DC
:101550008004424200127A0000093D001E00002073
:101560002E00002010B50446FB48844209D1012119
:101570008803FFF7ADFF00214FF48040FFF7A8FF7D
:1015800032E0F648844209D101214804FFF7ADFF5B
:1015900000214FF40030FFF7A8FF25E0F048844217
:1015A00009D101218804FFF7A0FF00214FF480201A
:1015B000FFF79BFF18E0EB48844209D10121C804E2
:1015C000FFF793FF00214FF40020FFF78EFF0BE0A1
:1015D000E548844208D101210805FFF786FF002174
:1015E0004FF48010FFF781FF10BD2DE9F04786B062
:1015F00005460E460024A24600BFA1460027B0893A
:1016000000B100BF2F462C8A4CF6FF700440F088D2
:1016100004432C82AC894EF6F3100440B088318923
:101620000843718908430443AC81AC8A4FF6FF40FC
:101630000440B0890443AC8201A8FFF7C2FEC6484B
:10164000874202D1DDF810A001E0DDF80CA0A889E6
:1016500000F4004040B10AEBCA0000EB0A10316808
:101660004900B0FBF1F807E00AEBCA0000EB0A10F2
:1016700031688900B0FBF1F86420B8FBF0F0040198
:101680002009642101FB1089A88900F4004040B1C1
:10169000322000EBC900B0FBF1F000F0070004437A
:1016A00008E0322000EB09106421B0FBF1F000F0FB
:1016B0000F0004432C8106B0BDE8F0874FF41651AB
:1016C000016000218180C18001810C2141810021C4
:1016D0008181704710B502460020108A4FF2FF0347
:1016E00018400B884C8823438C882343CC882343A1
:1016F0001843108210BD0021018041808180C1808B
:10170000704721B1828942F40052828104E08289CB
:101710004DF6FF731A4082817047F0B503460024EE
:1017200000260025002040F66A17B94200D100BF0C
:101730001846C1F3421401F01F06012707FA06F507
:10174000012C01D10C3004E0022C01D1103000E05A
:1017500014301AB107682F43076002E00768AF43EF
:101760000760F0BD1AB1838A0B43838202E0838A4B
:101770008B4383827047028A4FF6F0731A400282CD
:10178000028A0A430282704782894FF2FF731A402D
:10179000828182890A438281704721B1828942F025
:1017A0000202828104E082894FF6FD731A40828131
:1017B0007047028A4FF6DF731A400282028A0A4398
:1017C0000282704721B1028A42F48042028204E020
:1017D000028A4BF6FF731A4002827047C1F3080277
:1017E0008280704701468888C0F30800704781896D
:1017F00041F0010181817047028BD2B20283028BDA
:1018000042EA012202837047028B02F47F42028384
:10181000028B0A430283704721B1828A42F0200280
:10182000828204E0828A4FF6DF731A408282704718
:1018300021B1828A42F01002828204E0828A4FF64D
:10184000EF731A408282704721B1828A42F0080207
:10185000828204E0828A4FF6F7731A4082827047D0
:1018600021B1828942F40042828103E08289C2F37D
:101870000E028281704721B1828A42F40062828224
:1018800004E0828A4FF2FF731A4082827047828A94
:101890004FF6FB731A408282828A0A438282704723
:1018A00021B1828A42F00202828204E0828A4FF6EB
:1018B000FD731A408282704702460020B1F5007F16
:1018C00000D100BF13880B400BB1012000E00020C5
:1018D000704701F40072B2F5007F00D100BFCA4327
:1018E0000280704770B502460024002300250020C6
:1018F00040F66A16B14200D100BFC1F3421501F0B3
:101900001F03012606FA03F3012D02D19689334005
:1019100006E0022D02D1168A334001E0968A334058
:101920000C12012606FA04F41688344013B10CB1E7
:10193000012000E0002070BD10B50022002340F619
:101940006A14A14200D100BF0A1201249440A3B23C
:10195000DC43048010BD000000380140004400401A
:1019600000480040004C0040005000407047704765
:10197000704770477047754600F028F8AE4605007E
:101980006946534620F00700854618B020B5FFF79A
:10199000E9F9BDE820404FF000064FF000074FF096
:1019A00000084FF0000B21F00701AC46ACE8C0097D
:1019B000ACE8C009ACE8C009ACE8C0098D46704786
:1019C0000446AFF300802046FEF7F9FB004870475D
:1019D000FC000020000000000000000000000000EB
:1019E00000000000000038FCFC3800000000000D82
:1019F0000D000000000E1E00001E0E000000000082
:101A00000000000020F8F820F8F82000020F0F0274
:101A10000F0F0200387C444747CC9800060C08386A
:101A2000380F070030300080C06030000C06030122
:101A3000000C0C0080D87CE4BCD84000070F0808DC
:101A4000070F080000101E0E00000000000000003C
:101A5000000000000000F0F80C0400000000030784
:101A60000C0800000000040CF8F000000000080C56
:101A70000703000080A0E0C0C0E0A08000020301D6
:101A800001030200008080E0E0808000000000038D
:101A90000300000000000000000000000000101E15
:101AA0000E000000808080808080800000000000A8
:101AB0000000000000000000000000000000000C1A
:101AC0000C00000000000080C06030000C06030124
:101AD00000000000F8F80CC40CF8F00003070C0834
:101AE0000C070300001018FCFC0000000008080FA1
:101AF0000F080800080C84C4643C18000E0F090885
:101B0000080C0C00080C444444FCB800040C080801
:101B1000080F0700C0E0B098FCFC8000000000083F
:101B20000F0F08007C7C444444C48400040C080863
:101B3000080F0700F0F84C4444C08000070F080865
:101B4000080F07000C0C0484C47C3C0000000F0F3D
:101B500000000000B8FC444444FCB800070F08082B
:101B6000080F0700387C444444FCF80000080808CB
:101B70000C070300000000303000000000000006E9
:101B80000600000000000030300000000000080ED9
:101B9000060000000080C06030180800000001034B
:101BA000060C080000202020202020000001010158
:101BB000010101000008183060C0800000080C0618
:101BC00003010000181C04C4E43C18000000000DD0
:101BD0000D000000F0F008C8C8F8F000070F080B6F
:101BE0000B0B0100E0F0988C98F0E0000F0F000064
:101BF000000F0F0004FCFC4444FCB800080F0F0861
:101C0000080F0700F0F80C04040C180003070C0878
:101C1000080C060004FCFC040CF8F000080F0F0888
:101C20000C07030004FCFC44E40C1C00080F0F0824
:101C3000080C0E0004FCFC44E40C1C00080F0F0808
:101C400000000000F0F80C84848C980003070C0856
:101C500008070F00FCFC404040FCFC000F0F000098
:101C6000000F0F00000004FCFC0400000000080F3F
:101C70000F08000000000004FCFC0400070F080827
:101C80000F07000004FCFCC0E03C1C00080F0F0024
:101C9000010F0E0004FCFC0400000000080F0F08F8
:101CA000080C0E00FCFC387038FCFC000F0F000024
:101CB000000F0F00FCFC3870E0FCFC000F0F000070
:101CC000000F0F00F8FC040404FCF800070F0808DC
:101CD000080F070004FCFC44447C3800080F0F0880
:101CE00000000000F8FC040404FCF800070F080ED4
:101CF0003C3F270004FCFC44C4FC3800080F0F00E4
:101D0000000F0F00183C6444C49C1800060E08081D
:101D1000080F0700001C0CFCFC0C1C000000080F46
:101D20000F080000FCFC000000FCFC00070F080886
:101D3000080F0700FCFC000000FCFC000103060C7F
:101D400006030100FCFC000000FCFC00070F0E0372
:101D50000E0F07000C3CF0E0F03C0C000C0F0301F0
:101D6000030F0C00000C7CC0C07C3C000000080F7E
:101D70000F0800001C0C84C4643C1C000E0F0908F2
:101D8000080C0E000000FCFC0404000000000F0F13
:101D9000080800003870E0C080000000000000016A
:101DA00003070E0000000404FCFC0000000008080B
:101DB0000F0F0000080C0603060C080000000000CE
:101DC0000000000000000000000000002020202093
:101DD0002020202000000307040000000000000075
:101DE0000000000000A0A0A0E0C00000070F08084D
:101DF000070F080004FCFC2060C08000000F0F08E3
:101E0000080F0700C0E0202020604000070F0808EE
:101E1000080C040080C06024FCFC0000070F0808C8
:101E2000070F0800C0E0A0A0A0E0C000070F08084E
:101E3000080C040040F8FC440C180000080F0F08C0
:101E400000000000C0E02020C0E02000276F4848CC
:101E50007F3F000004FCFC4020E0C000080F0F00A2
:101E6000000F0F00000020ECEC0000000000080F45
:101E70000F0800000000000020ECEC000030704073
:101E8000407F3F0004FCFC80C0602000080F0F0171
:101E9000030E0C00000004FCFC0000000000080F12
:101EA0000F080000E0E060C060E0C0000F0F000716
:101EB000000F0F0020E0C02020E0C000000F0F0046
:101EC000000F0F00C0E0202020E0C000070F08082E
:101ED000080F070020E0C02020E0C000407F7F48BE
:101EE000080F0700C0E02020C0E02000070F0848CE
:101EF0007F7F400020E0C06020E0C000080F0F0896
:101F00000000000040E0A02020604000040C09090F
:101F10000B0E04002020F8FC202000000000070F1A
:101F2000080C0400E0E00000E0E00000070F0808F3
:101F3000070F080000E0E00000E0E0000003070CED
:101F40000C070300E0E0008000E0E000070F0C0752
:101F50000C0F07002060C080C0602000080C070341
:101F6000070C0800E0E0000000E0E000474F4848B0
:101F7000683F1F00606020A0E06020000C0E0B098D
:101F8000080C0C00004040F8BC04040000000007EE
:101F90000F080800000000BCBC0000000000000F9B
:101FA0000F000000000404BCF84040000008080FC7
:101FB00007000000080C040C080C040000000000DE
:101FC00000000000000000000000004F00000007BB
:101FD000000700147F147F14242A7F2A1223130879
:101FE000646236495522500005070000001C22415A
:101FF000000041221C0014083E081408083E08088E
:102000000050300000080808080800606000002048
:10201000100804023E5149453E00427F40004261A3
:102020005149462141454B311814127F102745452F
:1020300045393C4A49493001710905033649494946
:1020400036064949291E0036360000005636000083
:10205000081422410014141414140041221408021C
:1020600001510906324979413E7E1111117E7F49A5
:102070004949363E414141227F4141221C7F494925
:1020800049417F090909013E4149497A7F08080809
:102090007F00417F41002040413F017F08142241E1
:1020A0007F404040407F020C027F7F0408107F3E4B
:1020B0004141413E7F090909063E4151215E7F09A8
:1020C000192946464949493101017F01013F4040F4
:1020D000403F1F2040201F3F4038403F63140814FA
:1020E0006307087008076151494543007F4141007B
:1020F00002040810200041417F0004020102044054
:1021000040404040010204000020545454787F486D
:102110004848303844444444304848487F38545450
:10212000545800087E0902485454543C7F0808085B
:102130007000007A00002040403D007F20284400CD
:1021400000417F40007C0438047C7C08040478381B
:10215000444444387C14141408081414147C7C0877
:10216000040408485454542404043F44243C40408C
:10217000403C1C2040201C3C4030403C442810285F
:102180004404483008044464544C44083641410037
:1021900000007700000041413608040202020100FD
:1021A000000000000000000000000000000000002F
:1021B000000000000000000000000000000000001F
:1021C000000000000000000000000000000000000F
:1021D00000000000000000000000000000000000FF
:1021E00000000000000000000000000000000000EF
:1021F00000000000000000000000000000000000DF
:1022000000000000000000000000000000000000CE
:1022100000000000000000000000000000000000BE
:1022200000000000000000000000000000000000AE
:10223000000000000000000000000080800000009E
:102240000000000000000000000000807008000096
:1022500000000000000000080000800800001000DE
:10226000000010000000100000001000000010002E
:1022700000001000001C1E1E1E1C000010000000AC
:10228000080008008088804404040000000000006A
:10229000000000000000000000000000000000003E
:1022A000000000000000000000000000000000002E
:1022B0000000800000000000000809080000000085
:1022C0000000C0400000202020300C030000000867
:1022D00008C0004040202030101002252720202078
:1022E000202000200020000020000210D0503830B4
:1022F0003028202444420040000000000008000074
:1023000010002000400080808000000000000000DD
:1023100000000000000000000000000000000000BD
:1023200000000000000000000000000000000000AD
:102330000603010000000000000000E0180C060386
:10234000060931202020400040000000000000006D
:102350004080070C08080800000080000000000012
:1023600000000000000000000000807900C00000B4
:102370000000000000000000000000000006708067
:10238000000000000000000080411100000000007B
:10239000000000000000000000000000000000003D
:1023A000000000000000000000000000000000002D
:1023B000000006E8800000000000000001010001AC
:1023C0000000000000000000001810102000200095
:1023D0003011363858505808569198908080808037
:1023E0000009030A0A080084868102040409080817
:1023F00000000000000000000000081800000007B6
:1024000008080808040400010000000000000000A3
:1024100000000000000000000000000000000000BC
:1024200000000000000000000000000000000000AC
:102430000000000001010100000000000000000099
:102440000000000000000000000000000004060082
:102450000000000000000000000000000000000478
:102460000008000008000008000009010109010936
:10247000010900080407000000000000000000003F
:10248000000000000000000000000000000000004C
:10249000000000000000000000000000000000003C
:1024A000000000000000000000000000000000002C
:1024B000000000000000000000000000000000001C
:1024C000000000000000000000000000000000000C
:1024D00000000000000000000000000000000000FC
:1024E00000000000000000000000000000000000EC
:1024F00000000000000000000000000000000000DC
:1025000000000000000000000000000000000000CB
:1025100000000000000000000000000000000000BB
:1025200000000000000000000000000000000000AB
:10253000000000000000000000000000000000009B
:10254000000000000000000000000000000000008B
:10255000000000000000000000000000000000007B
:10256000000000000000000000000000000000006B
:10257000000000000000000000000000000000005B
:10258000000000000000000000000000000000004B
:10259000000000000000000000000000000000003B
:1025A0000000000080C0404040408080C00000002B
:1025B0004040C0C040404040C0808000000000005B
:1025C000E0FC0E030000000000000001030C00000E
:1025D0000000FFFF000000000000010FFEF00000FF
:1025E0001FFFE0000000000000000000806000000D
:1025F0000000FFFF00000000000000E07F1F00005F
:1026000000000103020404040404020301000000AA
:102610000404070704040404060203010000000088
:10262000000040404040C0C040404040000000002A
:10263000000000808040404040808000000000009A
:10264000000000000000FFFF00000000000000008C
:10265000F0FC0F01000000000000010FFCF0000082
:10266000000000000000FFFF00000000000000006C
:102670001F7FE00000000000000000C07F1F00007E
:10268000000004040404070704040404000000001C
:10269000000001030204040404020301000000001E
:1026A00000000000C00000000000000000041C78D2
:1026B00070000000000000000000808000000000AA
:1026C0000000080E0F818181010519797101010156
:1026D000FDFD0901010101010907030101000000DD
:1026E00000002020202020232F2E20202020A0F8B2
:1026F000BF232020202020202010181810000000C8
:1027000000004040404020203010180C0C0703010E
:102710000001010306060C1C3C78200000000000AC
:1027200000000020602020202020202020202020C9
:1027300020202020202020E0F020000000000000C9
:1027400000000000000000000002040C1878700077
:1027500000000000000000FFFF000000000000007B
:10276000000080808080C0C0C06020301010080849
:1027700004040202020000FFFF000000000000004D
:102780000000000103010100000000000000000043
:10279000040808081838381F07000000000000006F
:1027A0000000000000000000000000000000000029
:1027B0000000000000000000000000000000000019
:1027C0000000000000000000000000000000000009
:1027D00000000000000000000000000000000000F9
:1027E00000000000000000000000000000000000E9
:1027F00000000000000000000000000000000000D9
:1028000000000000000000000000000000000000C8
:102810000000000000000000000000000000003088
:102820002E39364F4C4544D2BABEA7C4A3BFE900E7
:10283000D7AACBD9B5E7C1F7B7B4C0A1B8F8C9E8F2
:10284000B6A8B0B4BCFCCFD4CABECBB5C3F7BCD31A
:10285000BCF5C8B7B6A8B7ADD2B300C8B88FE88882
:1028600088404848E85F4848484000081808FF0486
:102870000400020B1222D20A060000404042CC00A3
:1028800004F49494FF9494F40400000040201F206A
:10289000484442415F4142444840000000F8888873
:1028A0008888FF88888888F800000000001F0808D2
:1028B00008087F888888889F80F0001060028C005C
:1028C0004464544D46445464C4040004047E0180AE
:1028D000403E0000FE00007E80E0000000FC24245A
:1028E000E42424222222A36200000040308F804092
:1028F000402314081422414080800040308F082873
:1029000018405C54547F54545C400000007F2010F9
:1029100008809F41211D21419F00002030AC6310A1
:10292000205048444344485020200022672212127D
:1029300000FE4242424242FE000000404042CC00C3
:1029400040A09E8282829EA02020000000003F9036
:102950008840432C10284641808000100C44444499
:102960004445C64444444444140C008040201E2086
:1029700040407F4444444444404000101010FF90C5
:1029800020988888E98E8888A898000242817F0074
:102990000080844B281028478000004030EF24241A
:1029A00080E49C105454FF547C100001017F21519D
:1029B0002618274445455F45454400000000FE9227
:1029C000929292929292FE0000000040424458403F
:1029D0007F4040407F405048464000404042424295
:1029E0004242C24242424242404000201008060099
:1029F00040807F0000000204083000404042CC00CC
:102A000000F11610101814F30000000000003F90B1
:102A100048211907013F414140700000FC444444F3
:102A2000FC0000FE22222222FE0000000F0404040B
:102A30008F40300F020242827F0000101010FF1002
:102A400010F00000F8080808F800008040300F403F
:102A5000807F00007F2020207F000000020CC0004B
:102A6000F80848484808FF08098A0002027F8040A9
:102A70003F001E925E20173846F1000484E45C4457
:102A8000C42010E82724E4342CE00002017F101059
:102A90003F80601F09093F49897F00100C4444446E
:102AA0004445C64444444444140C008040201E2045
:102AB00040407F4444444444404000965A327E3172
:102AC00059951222FE001222FE000000FF497F49A4
:102AD000FF0044827F0442817F0000000202F21264
:102AE0001A16D2121212F2020200000080804F4029
:102AF0002018070810204F80000000001C2B000841
:102B000000000020340000006C010008502B000879
:102B1000340000202C0700008801000800A24A04AD
:102B2000000000000000000001020304060708097D
:102B30000000000000000000000000000000010292
:102B40000304010203040607080902040608000042
:0400000508000131BD
:00000001FF
